:020000040000FA
:0400000023EF07F0F3
:10060000000948756D3A2025642E25640A0D0054B2
:10061000656D703A2025642E256400001FC037F0F8
:1006200020C038F021C039F022C03AF023C03BF09E
:1006300024C03CF025C03DF026C03EF03EAE02D0C6
:10064000010E01D0000E356E366A35503610D8B422
:1006500010D03E1E3D1E3C1E3B1E3A1E391E381E4B
:10066000376C000E382239223A223B223C223D22AE
:100670003E22000165AF669365BF05D0655108E174
:100680006405D8B005D0000E326E010E316E04D074
:1006900064C031F065C032F062C033F063C034F042
:1006A00035503610D8A402D066A503D03306D8A0A2
:1006B0003406000E406E1F0E3F6E000E876F7CD01A
:1006C0003F06D8A04006680E3F24D96E000E402099
:1006D000DA6E37C001F038C002F039C003F03AC01A
:1006E00004F03BC005F03CC006F03DC007F03EC042
:1006F00008F00A0E096E000E0A6E000E0B6E000E58
:100700000C6E000E0D6E000E0E6E000E0F6E000EC3
:10071000106E96EC05F001C027F002C028F003C06F
:1007200029F004C02AF005C02BF006C02CF007C049
:100730002DF008C02EF027C013F029C014F092EC61
:1007400007F01350300FDF6E3106D8A032063306A3
:10075000D8A0340637C001F038C002F039C003F029
:100760003AC004F03BC005F03CC006F03DC007F0C5
:100770003EC008F00A0E096E000E0A6E000E0B6EE7
:10078000000E0C6E000E0D6E000E0E6E000E0F6E43
:10079000000E106EF2EC04F001C037F002C038F029
:1007A00003C039F004C03AF005C03BF006C03CF08D
:1007B00007C03DF008C03EF040BE20D0405003E1ED
:1007C0003F04D8A01BD03750381039103A103B10D6
:1007D0003C103D103E10D8A473D732BE05D0325025
:1007E00002E13104D8B06CD734BE08D0345003E1F4
:1007F0003304D8A003D0000166B362D73550361059
:10080000D8A403D0000166A517D03F06D8A04006A3
:1008100035503610D8A404D0000E306E2B0E03D005
:10082000000E306E2D0E2F6E680E3F24D96E000E16
:100830004020DA6E2FC0DFFF1DC012F01EC013F083
:10084000680E3F24146E000E4020156E33C016F063
:1008500034C017F075EC06F012C01DF013C01EF086
:10086000120043C0D9FF44C0DAFFDECFF6FFDDCF70
:10087000F7FF0800F550250AD8A49AD043C0D9FF45
:1008800044C0DAFFDE2A000EDD22000E0001636F95
:10089000000E626F62C066F063C067F064696569EC
:1008A00043C0D9FF44C0DAFFDECFF6FFDDCFF7FF4C
:1008B0000800F550640AD8B40DD043C0D9FF44C035
:1008C000DAFFDECFF6FFDDCFF7FF0800F550690A4B
:1008D000D8A43FD043C0D9FF44C0DAFFDE2A000EBF
:1008E000DD2245C0D9FF46C0DAFFDFCF47F0020E58
:1008F000DE26DFCF48F0000EDD2247C0D9FF48C01A
:10090000DAFFDECF49F0DDCF4AF0000E4ABEFF0E1F
:100910004B6E4C6E4D6E4E6E4F6E506E41C01DF064
:1009200042C01EF049C01FF04AC020F04BC021F069
:100930004CC022F04DC023F04EC024F04FC025F033
:1009400050C026F00EEC03F01DC041F01EC042F076
:10095000120043C0D9FF44C0DAFFDECFF6FFDDCF7F
:10096000F7FF0800F550250AD8A416D043C0D9FFD8
:1009700044C0DAFFDE2A000EDD22000E036E250ED3
:10098000026E41C004F042C005F0C2EC06F0000E59
:10099000426E010E416E120043C0D9FF44C0DAFF1F
:1009A000DE2A000EDD22000E426E000E416E1200A5
:1009B00043C0D9FF44C0DAFFDECFF6FFDDCFF7FF3B
:1009C0000800F550026E036A41C004F042C005F011
:1009D000C2EC06F043C0D9FF44C0DAFFDE2A000EA5
:1009E000DD22D5D7000E126E10AE12D0101E0F1ED3
:1009F0000E1E0D1E0C1E0B1E0A1E096C000E0A2276
:100A00000B220C220D220E220F221022010E126E3A
:100A100008AE12D0081E071E061E051E041E031E69
:100A2000021E016C000E022203220422052206226D
:100A300007220822010E121A20EE13F0070EDE6ABA
:100A4000E806FDE209500A100B100C100D100E10F4
:100A50000F101010D8B446D0010E116E0AD0D890E5
:100A600009360A360B360C360D360E360F36103672
:100A7000112A10AEF4D7D890133614361536163620
:100A80001736183619361A360950015C0A500258C2
:100A90000B5003580C5004580D5005580E50065872
:100AA0000F50075810500858D8A011D00950015EB7
:100AB0000A50025A0B50035A0C50045A0D50055A52
:100AC0000E50065A0F50075A1050085A1380D890EB
:100AD00010320F320E320D320C320B320A32093222
:100AE000112EC9D71250D8B410D01A1E191E181EB4
:100AF000171E161E151E141E136C000E142215222E
:100B000016221722182219221A2213C001F014C02B
:100B100002F015C003F016C004F017C005F018C0AD
:100B200006F019C007F01AC008F01200000E126E8D
:100B300008AE12D0081E071E061E051E041E031E48
:100B4000021E016C000E022203220422052206224C
:100B500007220822010E126E10AE10D0101E0F1EBA
:100B60000E1E0D1E0C1E0B1E0A1E096C000E0A2204
:100B70000B220C220D220E220F22102209500A10E5
:100B80000B100C100D100E100F101010D8B43CD01C
:100B9000010E116E0AD0D89009360A360B360C3683
:100BA0000D360E360F361036112A10AEF4D7095016
:100BB000015C0A5002580B5003580C5004580D5059
:100BC00005580E5006580F50075810500858D8A016
:100BD00010D00950015E0A50025A0B50035A0C50B3
:100BE000045A0D50055A0E50065A0F50075A10500D
:100BF000085AD89010320F320E320D320C320B32AE
:100C00000A320932112ED3D71250D8B410D0081E90
:100C1000071E061E051E041E031E021E016C000E8A
:100C2000022203220422052206220722082201C0F2
:100C300001F002C002F003C003F004C004F005C0DC
:100C400005F006C006F007C007F008C008F0120063
:100C5000E6EC07F092928982060E00018D6F130E6A
:100C60008C6FAD0EE82EFED78C2FFCD78D2FFAD7C8
:100C700000D0D5EC07F008EC08F078EC07F00001A4
:100C8000906F78EC07F00001916F78EC07F00001AD
:100C9000926F78EC07F00001936F78EC07F00F0E7D
:100CA000596E060E5A6E92C05BF05C6A93C05DF09E
:100CB0005E6A40EC07F0010E596E060E5A6E90C047
:100CC0005BF05C6A91C05DF05E6A40EC07F0060E76
:100CD00000018D6F130E8C6FAD0EE82EFED78C2F9A
:100CE000FCD78D2FFAD700D0B5D7000166A10AD066
:100CF00014C00BF015C00CF012C00DF013C00EF0B4
:100D00005CEC07F017BE05D016C01BF017C01CF036
:100D100004D0000E1C6E000E1B6E000E1A6E000E2C
:100D2000196E0CD0000E036E200E026E12C004F07D
:100D300013C005F0C2EC06F0194A1A2A1B50195CC0
:100D40001A50800A186E1C50800A1858D8A0EAD78A
:100D5000000166B10AD014C00BF015C00CF012C02F
:100D60000DF013C00EF05CEC07F014C001F015C0DC
:100D700002F0C0EC07F01B500124126E1C50022040
:100D8000136E120004500510D8B404D0045005109E
:100D9000D8A404D002500FEC08F0120020EE04F0AA
:100DA0000450D9260550DA22DE50DE10D8B416D011
:100DB00020EE04F00450D9260550DA2210EE02F09D
:100DC0000450E1260550E222DE50E65CE650800A3F
:100DD0000A6EDE50800A0A58D8B0120020EE02F0E7
:100DE0000450D9260550DA22DE2A000EDD22120038
:100DF00053C057F054C058F0000E0001616F000E50
:100E0000606F13D051C041F052C042F0570E436E94
:100E1000000E446E55C045F056C046F031EC04F06B
:100E20004150000160274250612357C0F6FF58C06F
:100E3000F7FF0800F5500009D8A4E4D760C051F0CE
:100E400061C052F012002A0EF66E100EF76E000E00
:100E5000F86E00EE94F010EE04F00900F5CFEEFF0E
:100E6000E550E150FAE100EE60F0280EEE6AE80687
:100E7000FDE1000EF86E060EF76E000128EF06F099
:100E80005B0E00018A6F000E8B6F000E516E000E1C
:100E9000526E59C053F05AC054F08A0E556E000E6F
:100EA000566EF8EC06F051C088F052C089F088C048
:100EB00059F089C05AF01200000E116E000E106E2B
:100EC0000BD00FC002F0036A0DC004F00EC005F095
:100ED000C2EC06F0104A112A10500B24D96E1150A2
:100EE0000C20DA6EDF500F6E0F50D8B41200E9D725
:100EF000000E026E9282000E016E80A2FED70A0ED4
:100F0000E82EFED780A203D0D880023603D002504C
:100F10000224026E80B2FED7012A070E0164EDD7CB
:100F20000250120014BE05D0145010E11304D8B0C2
:100F30000DD013C015F014C016F0151E161E154A5C
:100F4000162A15C013F016C014F0120013C013F0C7
:100F500014C014F01200010E0F01386F000E896EDC
:100F6000010E926E000E396F000E8A6E000E936EA7
:100F7000000E3B6F000E8C6E9568948C948E120060
:100F800001C003F002C004F002D0014A022A01C0ED
:100F9000D9FF02C0DAFFDF50D8A4F7D70350015CB5
:100FA000016E04500258026E120092928992180E3D
:100FB000016E5F0EE82EFED7012EFCD700F089826D
:100FC000030EE82EFED700F092821200EFEC07F03D
:100FD000ABEC07F0F8EC07F001EC08F01200520E51
:100FE000D36E040ED26E800E9B6ED3B41200FDD76A
:100FF000900EAB6E260EAC6E400EB86E190EAF6E34
:101000001200010EC26E000EC16EC00EC06E120044
:1010100080B2FED780A2FED780A21200FDD7016E5B
:0E1020009EA8FED701C0ADFF12006C000000BC
:020000040020DA
:08000000FFFFFFFFFFFFFFFF00
:020000040030CA
:0E000000FF281F3CFFBE81FF0FC00FE00F4026
:00000001FF
