:020000040000FA
:0400000013EF04F006
:10060000006C6564204F46460A0D006C6564204FFF
:050610004E0A0D000080
:1006160034C0D9FF35C0DAFFDECFF6FFDDCFF7FFF6
:100626000800F550250AD8A440D034C0D9FF35C0FB
:10063600DAFFDE2A000EDD22000E246E000E236E87
:1006460023C027F024C028F02568266834C0D9FFC7
:1006560035C0DAFFDECFF6FFDDCFF7FF0800F55035
:10066600250AD8A416D034C0D9FF35C0DAFFDE2A51
:10067600000EDD22000E2A6E250E296E32C02BF0EA
:1006860033C02CF072EC03F0000E336E010E326EA6
:10069600120034C0D9FF35C0DAFFDE2A000EDD2293
:1006A600000E336E000E326E120034C0D9FF35C014
:1006B600DAFFDECFF6FFDDCFF7FF0800F550296E33
:1006C6002A6A32C02BF033C02CF072EC03F034C02F
:1006D600D9FF35C0DAFFDE2A000EDD22D5D72B5032
:1006E6002C10D8B404D02B502C10D8A404D02950E8
:1006F6003FEC04F0120020EE04F02B50D9262C50CB
:10070600DA22DE50DE10D8B416D020EE04F02B50DC
:10071600D9262C50DA2210EE02F02B50E1262C506E
:10072600E222DE50E65CE650800A316EDE50800A38
:100736003158D8B0120020EE02F02B50D9262C509A
:10074600DA22DE2A000EDD2212003AC03EF03BC05D
:100756003FF0000E226E000E216E12D038C032F02D
:1007660039C033F03E0E346E000E356E3CC036F0A6
:100776003DC037F00BEC03F03250212633502222D5
:100786003EC0F6FF3FC0F7FF0800F5500009D8A4A9
:10079600E5D721C038F022C039F0120020EC04F071
:1007A6008196010E406E060E416E00EC04F08350F9
:1007B600F00BF00AD8B4FBD781860B0E406E060EFE
:1007C600416E00EC04F08350F00BF00AD8B4E8D781
:1007D600FAD7010E0F01386F000E896E9268000E6F
:1007E600396F000E8A6EF00E936E000E3B6F000E90
:1007F6008C6E9568948C948E1200420E446E000E98
:10080600456E000E386E000E396E40C03AF041C09B
:100816003BF0440E3C6E000E3D6EA8EC03F0120059
:1008260000EE01F0280EEE6AE806FDE1000EF86E15
:10083600060EF76E0001D1EF03F029EC04F0ECECA4
:1008460003F032EC04F03BEC04F01200520ED36ECF
:10085600040ED26E800E9B6ED3B41200FDD7190E15
:10086600AF6E900EAB6E260EAC6E400EB86E1200DA
:0A08760092800F0138811200120079
:020000040020DA
:08000000FFFFFFFFFFFFFFFF00
:020000040030CA
:0E000000FF281F3CFFBE81FF0FC00FE00F4026
:00000001FF
