:020000040000FA
:0400000030EF04F0E9
:10060000001B5B324A201B5B303B3048201B5B30B9
:100610003B3066004C4544204F4646004C45442044
:0B0620004F4E001B5B3F32356C0000AA
:10062C0035C0D9FF36C0DAFFDECFF6FFDDCFF7FFDE
:10063C000800F550250AD8A440D035C0D9FF36C0E3
:10064C00DAFFDE2A000EDD22000E246E000E236E71
:10065C0023C027F024C028F02568266835C0D9FFB0
:10066C0036C0DAFFDECFF6FFDDCFF7FF0800F5501E
:10067C00250AD8A416D035C0D9FF36C0DAFFDE2A39
:10068C00000EDD22000E2B6E250E2A6E33C02CF0D0
:10069C0034C02DF07DEC03F0000E346E010E336E81
:1006AC00120035C0D9FF36C0DAFFDE2A000EDD227B
:1006BC00000E346E000E336E120035C0D9FF36C0FA
:1006CC00DAFFDECFF6FFDDCFF7FF0800F5502A6E1C
:1006DC002B6A33C02CF034C02DF07DEC03F035C008
:1006EC00D9FF36C0DAFFDE2A000EDD22D5D72C501A
:1006FC002D10D8B404D02C502D10D8A404D02A50CE
:10070C0056EC04F0120020EE04F02C50D9262D509B
:10071C00DA22DE50DE10D8B416D020EE04F02C50C5
:10072C00D9262D50DA2210EE02F02C50E1262D5055
:10073C00E222DE50E65CE650800A326EDE50800A21
:10074C003258D8B0120020EE02F02C50D9262D5081
:10075C00DA22DE2A000EDD2212004FEC04F0230E0A
:10076C00416E060E426E1DEC04F08196010E416E38
:10077C00060E426E1DEC04F0140E416E060E426E17
:10078C001DEC04F08350F00BF00AD8B4FBD7818633
:10079C00010E416E060E426E1DEC04F01C0E416EF5
:1007AC00060E426E1DEC04F08350F00BF00AD8B428
:1007BC00DCD7FAD73BC03FF03CC040F0000E226EB5
:1007CC00000E216E12D039C033F03AC034F03F0E17
:1007DC00356E000E366E3DC037F03EC038F016EC6C
:1007EC0003F033502126345022223FC0F6FF40C084
:1007FC00F7FF0800F5500009D8A4E5D721C039F05F
:10080C0022C03AF01200010E0F01386F000E896EF3
:10081C009268000E396F000E8A6EF00E936E000E09
:10082C003B6F000E8C6E9568948C948E1200430E68
:10083C00456E000E466E000E396E000E3A6E41C0CB
:10084C003BF042C03CF0450E3D6E000E3E6EE0ECBF
:10085C0003F0120000EE01F0280EEE6AE806FDE14E
:10086C00000EF86E060EF76E0001B3EF03F0520E99
:10087C00D36E040ED26E800E9B6ED3B41200FDD7D5
:10088C00190EAF6E900EAB6E260EAC6E400EB86E9F
:10089C0012003DEC04F009EC04F046EC04F01200FC
:0C08AC00296E9EA8FED729C0ADFF1200E7
:020000040020DA
:08000000FFFFFFFFFFFFFFFF00
:020000040030CA
:0E000000FF28033CFFBD81FF0FC00FE00F4043
:00000001FF
