:020000040000FA
:040000009AEF09F07A
:100600000025303264203A2025303264203A2025FB
:1006100030326420001B5B324A201B5B3F32356C5A
:09062000201B5B4800257300005B
:10062A0043C0D9FF44C0DAFFDECFF6FFDDCFF7FFC4
:10063A000800F550250AD8A481D143C0D9FF44C087
:10064A00DAFFDE2A000EDD22000E0001636F000EC3
:10065A00626F62C066F063C067F064696569000E24
:10066A00566E000E19D00001668143C0D9FF44C0FE
:10067A00DAFFDE2A000EDD2232D000016683F5D7CA
:10068A0000016685F2D700016687EFD70001668907
:10069A00ECD7000E566E010E556E21D043C0D9FF1D
:1006AA0044C0DAFFDECFF6FFDDCFF7FF0800F550D2
:1006BA00476E486A4850000AD8A4EBD74750200A28
:1006CA00D8B4E1D7030AD8B4E1D7080AD8B4D8D73E
:1006DA00060AD8B4C8D71D0AD8B4CFD7DAD7555026
:1006EA005610D8B4DBD7000166B1669343C0D9FF70
:1006FA0044C0DAFFDECFF6FFDDCFF7FF0800F55082
:10070A002A0AD8A423D043C0D9FF44C0DAFFDE2A7C
:10071A00000EDD2245C0D9FF46C0DAFFDFCF47F021
:10072A00020EDE26DFCF48F0000EDD2247C0D9FFD9
:10073A0048C0DAFFDECF62F0DDCF63F063AF3FD0AF
:10074A006681626D631FD8B0632B39D043C0D9FF6D
:10075A0044C0DAFFDECF08F0DDCF09F084EC06F002
:10076A0008C062F009C063F007D043C0D9FF44C093
:10077A00DAFFDE2A000EDD22D00E476EFF0E486E2B
:10078A0043C0D9FF44C0DAFFDECFF6FFDDCFF7FF63
:10079A000800F550496E4A6A4750492648504A228D
:1007AA004A5006E10A0E495CD8B002D0010E01D0C7
:1007BA00000E576E586A57505810D8A4D6D743C05F
:1007CA00D9FF44C0DAFFDECFF6FFDDCFF7FF08001E
:1007DA00F550640AD8B40DD043C0D9FF44C0DAFF3B
:1007EA00DECFF6FFDDCFF7FF0800F550690AD8A47F
:1007FA003FD043C0D9FF44C0DAFFDE2A000EDD2213
:10080A0045C0D9FF46C0DAFFDFCF47F0020EDE2629
:10081A00DFCF48F0000EDD2247C0D9FF48C0DAFF1B
:10082A00DECF4BF0DDCF4CF0000E4CBEFF0E4D6E0E
:10083A004E6E4F6E506E516E526E41C01DF042C0E8
:10084A001EF04BC01FF04CC020F04DC021F04EC02E
:10085A0022F04FC023F050C024F051C025F052C0FE
:10086A0026F0BDEC04F01DC041F01EC042F012009B
:10087A0043C0D9FF44C0DAFFDECFF6FFDDCFF7FF72
:10088A000800F550730AD8A42AD043C0D9FF44C03F
:10089A00DAFFDE2A000EDD2245C0D9FF46C0DAFFA4
:1008AA00DFCF47F0020EDE26DFCF48F0000EDD2252
:1008BA0047C0D9FF48C0DAFFDECF53F0DDCF54F08E
:1008CA0041C00BF042C00CF053C00DF054C00EF002
:1008DA0024EC07F00BC041F00CC042F0120043C0F8
:1008EA00D9FF44C0DAFFDECFF6FFDDCFF7FF0800FD
:1008FA00F550250AD8A416D043C0D9FF44C0DAFF60
:10090A00DE2A000EDD22000E036E250E026E41C0A5
:10091A0004F042C005F0FEEC08F0000E426E010E33
:10092A00416E120043C0D9FF44C0DAFFDE2A000E2E
:10093A00DD22000E426E000E416E120043C0D9FF46
:10094A0044C0DAFFDECFF6FFDDCFF7FF0800F5502F
:10095A00026E036A41C004F042C005F0FEEC08F0E2
:10096A0043C0D9FF44C0DAFFDE2A000EDD22D5D704
:10097A001FC037F020C038F021C039F022C03AF049
:10098A0023C03BF024C03CF025C03DF026C03EF019
:10099A003EAE02D0010E01D0000E356E366A3550D9
:1009AA003610D8B410D03E1E3D1E3C1E3B1E3A1EC9
:1009BA00391E381E376C000E382239223A223B2261
:1009CA003C223D223E22000165AF669365BF05D0F9
:1009DA00655108E16405D8B005D0000E326E010EEB
:1009EA00316E04D064C031F065C032F062C033F0B9
:1009FA0063C034F035503610D8A402D066A503D0AF
:100A0A003306D8A03406000E406E1F0E3F6E000E4D
:100A1A00876F7CD03F06D8A04006680E3F24D96E67
:100A2A00000E4020DA6E37C001F038C002F039C03B
:100A3A0003F03AC004F03BC005F03CC006F03DC0EC
:100A4A0007F03EC008F00A0E096E000E0A6E000E8C
:100A5A000B6E000E0C6E000E0D6E000E0E6E000E6A
:100A6A000F6E000E106EBAEC07F001C027F002C03C
:100A7A0028F003C029F004C02AF005C02BF006C0F4
:100A8A002CF007C02DF008C02EF027C013F029C0A3
:100A9A0014F0B5EC09F01350300FDF6E3106D8A010
:100AAA0032063306D8A0340637C001F038C002F047
:100ABA0039C003F03AC004F03BC005F03CC006F070
:100ACA003DC007F03EC008F00A0E096E000E0A6E1D
:100ADA00000E0B6E000E0C6E000E0D6E000E0E6EEA
:100AEA00000E0F6E000E106EE0EC05F001C037F03C
:100AFA0002C038F003C039F004C03AF005C03BF038
:100B0A0006C03CF007C03DF008C03EF040BE20D011
:100B1A00405003E13F04D8A01BD037503810391099
:100B2A003A103B103C103D103E10D8A473D732BE89
:100B3A0005D0325002E13104D8B06CD734BE08D0A7
:100B4A00345003E13304D8A003D0000166B362D75E
:100B5A0035503610D8A403D0000166A517D03F0639
:100B6A00D8A0400635503610D8A404D0000E306EF6
:100B7A002B0E03D0000E306E2D0E2F6E680E3F2402
:100B8A00D96E000E4020DA6E2FC0DFFF1DC012F0B2
:100B9A001EC013F0680E3F24146E000E4020156E1E
:100BAA0033C016F034C017F0B1EC08F012C01DF0D3
:100BBA0013C01EF01200000E126E10AE12D0101EDC
:100BCA000F1E0E1E0D1E0C1E0B1E0A1E096C000E99
:100BDA000A220B220C220D220E220F221022010EB3
:100BEA00126E08AE12D0081E071E061E051E041E2F
:100BFA00031E021E016C000E022203220422052299
:100C0A00062207220822010E121A20EE13F0070EFE
:100C1A00DE6AE806FDE209500A100B100C100D10EE
:100C2A000E100F101010D8B446D0010E116E0AD053
:100C3A00D89009360A360B360C360D360E360F3674
:100C4A001036112A10AEF4D7D8901336143615364A
:100C5A0016361736183619361A360950015C0A50F4
:100C6A0002580B5003580C5004580D5005580E509A
:100C7A0006580F50075810500858D8A011D00950DC
:100C8A00015E0A50025A0B50035A0C50045A0D5076
:100C9A00055A0E50065A0F50075A1050085A138018
:100CAA00D89010320F320E320D320C320B320A3219
:100CBA000932112EC9D71250D8B410D01A1E191ED3
:100CCA00181E171E161E151E141E136C000E142253
:100CDA00152216221722182219221A2213C001F0ED
:100CEA0014C002F015C003F016C004F017C005F0D6
:100CFA0018C006F019C007F01AC008F01200000E5A
:100D0A00166E000E156E000E0F6E000E0E6E02D0DD
:100D1A00084A092A010E146E08C0F6FF09C0F7FF37
:100D2A000800F550200AD8B418D0F70E0A6EFF0E44
:100D3A000B6E08C0F6FF09C0F7FF0800F5500C6EED
:100D4A000D6A0A500C260B500D220D5004E1050EB7
:100D5A000C5CD8A002D0000E146E14C010F0116AF8
:100D6A0010501110D8B408D0D3D7000E0F6E010E50
:100D7A000E6E084A092A2ED008C0F6FF09C0F7FFEE
:100D8A000800F5500A6E0B6A0B50000AD8A422D04C
:100D9A000A502B0AD8B4EDD7060AD8B4E6D71AD027
:100DAA0015C001F016C002F0000E046E0A0E036EA2
:100DBA0023EC0AF008C0F6FF09C0F7FF0800F55057
:100DCA00015E000E025A300E0124156E000E02203A
:100DDA00166ECFD7D00E0A6EFF0E0B6E08C0F6FF46
:100DEA0009C0F7FF0800F5500C6E0D6A0A500C2670
:100DFA000B500D220D5006E10A0E0C5CD8B002D041
:100E0A00010E01D0000E126E136A12501310D8A4EC
:100E1A00C7D70E500F10D8A40DD015C00AF016C0AF
:100E2A000BF00A1E0B1E0A4A0B2A0AC008F00BC056
:100E3A0009F0120015C008F016C009F0120020EEE1
:100E4A0088F010EE10F0060EDBCFE3FFE806FCE2B6
:100E5A000DC01BF00EC01CF01B501C10D8A404D0EF
:100E6A00100E1B6E000E1C6E1BC001F01CC002F09F
:100E7A00E6EC09F001C01FF002C020F064C01DF0CA
:100E8A0065C01EF01EBE0ED01F501D5C1E50800A8B
:100E9A000F6E2050800A0F58D8B004D01DC01FF022
:100EAA001EC020F01FC01DF020C01EF062C019F045
:100EBA0063C01AF0000166A10DD016D0000E036EB1
:100ECA00200E026E0BC004F00CC005F0FEEC08F018
:100EDA001F4A202A19501F5C2050800A0F6E1A5090
:100EEA00800A0F58D8A0EAD7000E186E000E176EA7
:100EFA0013D01BC0D9FF1CC0DAFFDF500F6E0F5092
:100F0A00026E036A0BC004F00CC005F0FEEC08F098
:100F1A001B4A1C2A174A182A1D50175C1850800AA7
:100F2A000F6E1E50800A0F58D8A0E3D7000166B191
:100F3A000DD016D0000E036E200E026E0BC004F008
:100F4A000CC005F0FEEC08F01F4A202A19501F5C5D
:100F5A002050800A0F6E1A50800A0F58D8A0EAD77C
:100F6A001FC00BF020C00CF01200000E126E08AE6B
:100F7A0012D0081E071E061E051E041E031E021E90
:100F8A00016C000E022203220422052206220722F5
:100F9A000822010E126E10AE10D0101E0F1E0E1E69
:100FAA000D1E0C1E0B1E0A1E096C000E0A220B22B5
:100FBA000C220D220E220F22102209500A100B10A9
:100FCA000C100D100E100F101010D8B43CD0010EDA
:100FDA00116E0AD0D89009360A360B360C360D3601
:100FEA000E360F361036112A10AEF4D70950015CAE
:100FFA000A5002580B5003580C5004580D5005580B
:10100A000E5006580F50075810500858D8A010D044
:10101A000950015E0A50025A0B50035A0C50045AE6
:10102A000D50055A0E50065A0F50075A1050085ABA
:10103A00D89010320F320E320D320C320B320A3285
:10104A000932112ED3D71250D8B410D0081E071E59
:10105A00061E051E041E031E021E016C000E02223D
:10106A0003220422052206220722082201C001F0D7
:10107A0002C002F003C003F004C004F005C005F08A
:10108A0006C006F007C007F008C008F0120044ECDA
:10109A000AF0320E0001B16F3B0EB26F0B0EB36F46
:1010AA00000EB46F000EB56F150EA56F060EA66F73
:1010BA000FEC0AF0010E0001A56F060EA66FB3C071
:1010CA00A7F0A86BB2C0A9F0AA6BB1C0ABF0AC6B29
:1010DA000FEC0AF00001B551D8A40ED0250EA56F69
:1010EA00060EA66FB4510A0D8F0EF324A76F000ED9
:1010FA00F420A86F0FEC0AF0F2A4FED7080E8A1AA1
:10110A000001B12B3C0EB119D8A420D0000EB16F4A
:10111A00B22B3C0EB219D8A419D0000EB26FB32B61
:10112A000C0EB36505D0B551D8A402D0010E07D074
:10113A00B551D8B405D0170EB36502D0000EB36FFF
:10114A000C0EB319D8A402D0010EB41BF2940B0EE4
:10115A00D76EDC0ED66EA8D7000166A10AD014C0DD
:10116A000BF015C00CF012C00DF013C00EF07EEC9F
:10117A0009F017BE05D016C01BF017C01CF004D02A
:10118A00000E1C6E000E1B6E000E1A6E000E196EFB
:10119A000CD0000E036E200E026E12C004F013C0B3
:1011AA0005F0FEEC08F0194A1A2A1B50195C1A506D
:1011BA00800A186E1C50800A1858D8A0EAD7000175
:1011CA0066B10AD014C00BF015C00CF012C00DF0B5
:1011DA0013C00EF07EEC09F014C001F015C002F045
:1011EA00E6EC09F01B500124126E1C500220136E0B
:1011FA00120004500510D8B404D004500510D8A425
:10120A0004D0025067EC0AF0120020EE04F00450F9
:10121A00D9260550DA22DE50DE10D8B416D020EED8
:10122A0004F00450D9260550DA2210EE02F00450D8
:10123A00E1260550E222DE50E65CE650800A0A6E9C
:10124A00DE50800A0A58D8B0120020EE02F004508C
:10125A00D9260550DA22DE2A000EDD2212005BC0F2
:10126A00A3F05CC0A4F0000E0001616F000E606F75
:10127A0013D059C041F05AC042F0A30E436E000E7B
:10128A00446E5DC045F05EC046F015EC03F0415077
:10129A000001602742506123A3C0F6FFA4C0F7FFF4
:1012AA000800F5500009D8A4E4D760C059F061C01D
:1012BA005AF01200010E076E200E01180210D8B45F
:1012CA0014D0F70E036EFF0E046E01C005F002C0C3
:1012DA0006F00350052604500622065004E1050EC6
:1012EA00055CD8A002D0000E076E07C001F0026AA2
:1012FA001200000E116E000E106E0BD00FC002F01D
:10130A00036A0DC004F00EC005F0FEEC08F0104AA6
:10131A00112A10500B24D96E11500C20DA6EDF50AE
:10132A000F6E0F50D8B41200E9D76C0EF66E140E79
:10133A00F76E000EF86E00EE88F010EE1BF0090052
:10134A00F5CFEEFFE550E150FAE100EE60F0280E2D
:10135A00EE6AE806FDE1000EF86E00014CEF08F0B7
:10136A0014BE05D0145010E11304D8B00DD013C028
:10137A0015F014C016F0151E161E154A162A15C0A9
:10138A0013F016C014F0120013C013F014C014F0B6
:10139A001200D00E036EFF0E046E01C005F002C0EB
:1013AA0006F00350052604500622065006E10A0EEE
:1013BA00055CD8B002D0010E01D0000E016E026A9F
:1013CA00120001C003F002C004F002D0014A022A4E
:1013DA0001C0D9FF02C0DAFFDF50D8A4F7D7035003
:1013EA00015C016E04500258026E1200010E0F01D8
:1013FA00386F000E896E9268000E396F000E8A6E81
:10140A00F70E936E000E3B6F000E8C6E9568948CEF
:10141A00948E1200A70E0001AF6F000EB06F000E7F
:10142A00596E000E5A6EA5C05BF0A6C05CF0AF0EF6
:10143A005D6E000E5E6E34EC09F01200015003027C
:10144A00F3CF05F0F4CF06F001500402F35006265C
:10145A0002500302F350062605C001F006C002F04E
:10146A001200286E756C6C2900414D0000000000C6
:0D147A00000000504D0000000000000000C8
:101488004DEC0AF0FBEC09F056EC0AF05FEC0AF0C0
:101498001200520ED36E040ED26E800E9B6ED3B421
:1014A8001200FDD7900EAB6E260EAC6E400EB86ED5
:1014B800190EAF6E1200930ED56E0B0ED76EDC0EA2
:1014C800D66EF2941200016E9EA8FED701C0ADFF41
:0214D800120000
:020000040020DA
:08000000FFFFFFFFFFFFFFFF00
:020000040030CA
:0E000000FF281F3CFFBE81FF0FC00FE00F4026
:00000001FF
